{
  "_format": "hh-sol-artifact-1",
  "contractName": "CCIPTokenSender",
  "sourceName": "contracts/CCIPTokenSender.sol",
  "abi": [
    {
      "inputs": [
        {
          "internalType": "address",
          "name": "_router",
          "type": "address"
        },
        {
          "internalType": "address",
          "name": "_link",
          "type": "address"
        }
      ],
      "stateMutability": "nonpayable",
      "type": "constructor"
    },
    {
      "inputs": [
        {
          "internalType": "uint256",
          "name": "currentBalance",
          "type": "uint256"
        },
        {
          "internalType": "uint256",
          "name": "calculatedFees",
          "type": "uint256"
        }
      ],
      "name": "NotEnoughBalance",
      "type": "error"
    },
    {
      "inputs": [
        {
          "internalType": "uint64",
          "name": "sourceChainSelector",
          "type": "uint64"
        }
      ],
      "name": "SourceChainNotAllowed",
      "type": "error"
    },
    {
      "anonymous": false,
      "inputs": [
        {
          "indexed": true,
          "internalType": "bytes32",
          "name": "messageId",
          "type": "bytes32"
        },
        {
          "indexed": true,
          "internalType": "uint64",
          "name": "destinationChainSelector",
          "type": "uint64"
        },
        {
          "indexed": false,
          "internalType": "address",
          "name": "receiver",
          "type": "address"
        },
        {
          "indexed": false,
          "internalType": "string",
          "name": "text",
          "type": "string"
        },
        {
          "indexed": false,
          "internalType": "address",
          "name": "token",
          "type": "address"
        },
        {
          "indexed": false,
          "internalType": "uint256",
          "name": "tokenAmount",
          "type": "uint256"
        },
        {
          "indexed": false,
          "internalType": "address",
          "name": "feeToken",
          "type": "address"
        },
        {
          "indexed": false,
          "internalType": "uint256",
          "name": "fees",
          "type": "uint256"
        }
      ],
      "name": "MessageSent",
      "type": "event"
    },
    {
      "anonymous": false,
      "inputs": [
        {
          "indexed": true,
          "internalType": "address",
          "name": "from",
          "type": "address"
        },
        {
          "indexed": true,
          "internalType": "address",
          "name": "to",
          "type": "address"
        }
      ],
      "name": "OwnershipTransferRequested",
      "type": "event"
    },
    {
      "anonymous": false,
      "inputs": [
        {
          "indexed": true,
          "internalType": "address",
          "name": "from",
          "type": "address"
        },
        {
          "indexed": true,
          "internalType": "address",
          "name": "to",
          "type": "address"
        }
      ],
      "name": "OwnershipTransferred",
      "type": "event"
    },
    {
      "inputs": [],
      "name": "acceptOwnership",
      "outputs": [],
      "stateMutability": "nonpayable",
      "type": "function"
    },
    {
      "inputs": [],
      "name": "owner",
      "outputs": [
        {
          "internalType": "address",
          "name": "",
          "type": "address"
        }
      ],
      "stateMutability": "view",
      "type": "function"
    },
    {
      "inputs": [],
      "name": "polygonDestinationChainSelector",
      "outputs": [
        {
          "internalType": "uint64",
          "name": "",
          "type": "uint64"
        }
      ],
      "stateMutability": "view",
      "type": "function"
    },
    {
      "inputs": [
        {
          "internalType": "address",
          "name": "_receiver",
          "type": "address"
        },
        {
          "internalType": "string",
          "name": "_text",
          "type": "string"
        },
        {
          "internalType": "address",
          "name": "_token",
          "type": "address"
        },
        {
          "internalType": "uint256",
          "name": "_amount",
          "type": "uint256"
        }
      ],
      "name": "sendMessagePayLINK",
      "outputs": [
        {
          "internalType": "bytes32",
          "name": "messageId",
          "type": "bytes32"
        }
      ],
      "stateMutability": "nonpayable",
      "type": "function"
    },
    {
      "inputs": [
        {
          "internalType": "address",
          "name": "_receiver",
          "type": "address"
        },
        {
          "internalType": "string",
          "name": "_text",
          "type": "string"
        },
        {
          "internalType": "address",
          "name": "_token",
          "type": "address"
        },
        {
          "internalType": "uint256",
          "name": "_amount",
          "type": "uint256"
        }
      ],
      "name": "sendMessagePayNative",
      "outputs": [
        {
          "internalType": "bytes32",
          "name": "messageId",
          "type": "bytes32"
        }
      ],
      "stateMutability": "nonpayable",
      "type": "function"
    },
    {
      "inputs": [
        {
          "internalType": "address",
          "name": "to",
          "type": "address"
        }
      ],
      "name": "transferOwnership",
      "outputs": [],
      "stateMutability": "nonpayable",
      "type": "function"
    },
    {
      "stateMutability": "payable",
      "type": "receive"
    }
  ],
  "bytecode": "0x608060405260038054600160a01b600160e01b03191667adecc60412ce25a560a01b17905534801561003057600080fd5b5060405161101238038061101283398101604081905261004f916101d2565b33806000816100a55760405162461bcd60e51b815260206004820152601860248201527f43616e6e6f7420736574206f776e657220746f207a65726f000000000000000060448201526064015b60405180910390fd5b600080546001600160a01b0319166001600160a01b03848116919091179091558116156100d5576100d58161010d565b5050600380546001600160a01b039485166001600160a01b031991821617909155600280549390941692169190911790915550610205565b336001600160a01b038216036101655760405162461bcd60e51b815260206004820152601760248201527f43616e6e6f74207472616e7366657220746f2073656c66000000000000000000604482015260640161009c565b600180546001600160a01b0319166001600160a01b0383811691821790925560008054604051929316917fed8889f560326eb138920d842192f0eb3dd22b4f139c87a2c57538e05bae12789190a350565b80516001600160a01b03811681146101cd57600080fd5b919050565b600080604083850312156101e557600080fd5b6101ee836101b6565b91506101fc602084016101b6565b90509250929050565b610dfe806102146000396000f3fe6080604052600436106100695760003560e01c80638290406e116100435780638290406e146101005780638da5cb5b14610120578063f2fde38b1461014857600080fd5b8063459c0d1c1461007557806360b5d4f7146100bb57806379ba5097146100e957600080fd5b3661007057005b600080fd5b34801561008157600080fd5b5060035461009d90600160a01b900467ffffffffffffffff1681565b60405167ffffffffffffffff90911681526020015b60405180910390f35b3480156100c757600080fd5b506100db6100d6366004610af2565b610168565b6040519081526020016100b2565b3480156100f557600080fd5b506100fe61050c565b005b34801561010c57600080fd5b506100db61011b366004610af2565b6105ca565b34801561012c57600080fd5b506000546040516001600160a01b0390911681526020016100b2565b34801561015457600080fd5b506100fe610163366004610b8e565b6107e6565b60008061018e8787878787600260009054906101000a90046001600160a01b03166107fa565b6003546040516320487ded60e01b81529192506000916001600160a01b038216916320487ded916101d591600160a01b900467ffffffffffffffff16908690600401610bf6565b602060405180830381865afa1580156101f2573d6000803e3d6000fd5b505050506040513d601f19601f820116820180604052508101906102169190610cd0565b6002546040516370a0823160e01b81523060048201529192506001600160a01b0316906370a0823190602401602060405180830381865afa15801561025f573d6000803e3d6000fd5b505050506040513d601f19601f820116820180604052508101906102839190610cd0565b81111561031f576002546040516370a0823160e01b81523060048201526001600160a01b03909116906370a0823190602401602060405180830381865afa1580156102d2573d6000803e3d6000fd5b505050506040513d601f19601f820116820180604052508101906102f69190610cd0565b604051634787a10360e11b81526004810191909152602481018290526044015b60405180910390fd5b60025460035460405163095ea7b360e01b81526001600160a01b0391821660048201526024810184905291169063095ea7b3906044016020604051808303816000875af1158015610374573d6000803e3d6000fd5b505050506040513d601f19601f820116820180604052508101906103989190610ce9565b5060035460405163095ea7b360e01b81526001600160a01b039182166004820152602481018690529086169063095ea7b3906044016020604051808303816000875af11580156103ec573d6000803e3d6000fd5b505050506040513d601f19601f820116820180604052508101906104109190610ce9565b506003546040516396f4e9f960e01b81526001600160a01b038216916396f4e9f99161045291600160a01b900467ffffffffffffffff16908690600401610bf6565b6020604051808303816000875af1158015610471573d6000803e3d6000fd5b505050506040513d601f19601f820116820180604052508101906104959190610cd0565b600354600254604051929550600160a01b90910467ffffffffffffffff169185917f437cb3c5ba4364504dda6ba3c906ffb0897c7beeb1675f3aaf22a1b9a99b3994916104f9918d918d918d918d918d916001600160a01b03909116908b90610d34565b60405180910390a3505095945050505050565b6001546001600160a01b031633146105665760405162461bcd60e51b815260206004820152601660248201527f4d7573742062652070726f706f736564206f776e6572000000000000000000006044820152606401610316565b600080543373ffffffffffffffffffffffffffffffffffffffff19808316821784556001805490911690556040516001600160a01b0390921692909183917f8be0079c531659141344cd1fd0a4f28419497f9722a3daafe3b4186f6b6457e091a350565b6000806105dc878787878760006107fa565b6003546040516320487ded60e01b81529192506000916001600160a01b038216916320487ded9161062391600160a01b900467ffffffffffffffff16908690600401610bf6565b602060405180830381865afa158015610640573d6000803e3d6000fd5b505050506040513d601f19601f820116820180604052508101906106649190610cd0565b90504781111561069057604051634787a10360e11b815247600482015260248101829052604401610316565b60035460405163095ea7b360e01b81526001600160a01b039182166004820152602481018690529086169063095ea7b3906044016020604051808303816000875af11580156106e3573d6000803e3d6000fd5b505050506040513d601f19601f820116820180604052508101906107079190610ce9565b506003546040516396f4e9f960e01b81526001600160a01b038216916396f4e9f991849161074c91600160a01b90910467ffffffffffffffff16908790600401610bf6565b60206040518083038185885af115801561076a573d6000803e3d6000fd5b50505050506040513d601f19601f8201168201806040525081019061078f9190610cd0565b600354604051919450600160a01b900467ffffffffffffffff169084907f437cb3c5ba4364504dda6ba3c906ffb0897c7beeb1675f3aaf22a1b9a99b3994906104f9908c908c908c908c908c906000908b90610d34565b6107ee6109c4565b6107f781610a20565b50565b6108356040518060a0016040528060608152602001606081526020016060815260200160006001600160a01b03168152602001606081525090565b604080516001808252818301909252600091816020015b604080518082019091526000808252602082015281526020019060019003908161084c5790505090506040518060400160405280866001600160a01b0316815260200185815250816000815181106108a6576108a6610d7d565b60209081029190910101526040805160a081019091526001600160a01b03891660c08201528060e08101604051602081830303815290604052815260200188886040516020016108f7929190610dac565b6040516020818303038152906040528152602001828152602001846001600160a01b031681526020016109b6604051806040016040528062030d408152602001600015158152506040805182516024820152602092830151151560448083019190915282518083039091018152606490910190915290810180517bffffffffffffffffffffffffffffffffffffffffffffffffffffffff167f97a657c90000000000000000000000000000000000000000000000000000000017905290565b905298975050505050505050565b6000546001600160a01b03163314610a1e5760405162461bcd60e51b815260206004820152601660248201527f4f6e6c792063616c6c61626c65206279206f776e6572000000000000000000006044820152606401610316565b565b336001600160a01b03821603610a785760405162461bcd60e51b815260206004820152601760248201527f43616e6e6f74207472616e7366657220746f2073656c660000000000000000006044820152606401610316565b6001805473ffffffffffffffffffffffffffffffffffffffff19166001600160a01b0383811691821790925560008054604051929316917fed8889f560326eb138920d842192f0eb3dd22b4f139c87a2c57538e05bae12789190a350565b80356001600160a01b0381168114610aed57600080fd5b919050565b600080600080600060808688031215610b0a57600080fd5b610b1386610ad6565b9450602086013567ffffffffffffffff80821115610b3057600080fd5b818801915088601f830112610b4457600080fd5b813581811115610b5357600080fd5b896020828501011115610b6557600080fd5b602083019650809550505050610b7d60408701610ad6565b949793965091946060013592915050565b600060208284031215610ba057600080fd5b610ba982610ad6565b9392505050565b6000815180845260005b81811015610bd657602081850181015186830182015201610bba565b506000602082860101526020601f19601f83011685010191505092915050565b6000604067ffffffffffffffff8516835260208181850152845160a083860152610c2360e0860182610bb0565b905081860151603f1980878403016060880152610c408383610bb0565b88860151888203830160808a01528051808352908601945060009350908501905b80841015610c9357845180516001600160a01b0316835286015186830152938501936001939093019290860190610c61565b5060608901516001600160a01b031660a08901526080890151888203830160c08a01529550610cc28187610bb0565b9a9950505050505050505050565b600060208284031215610ce257600080fd5b5051919050565b600060208284031215610cfb57600080fd5b81518015158114610ba957600080fd5b81835281816020850137506000828201602090810191909152601f909101601f19169091010190565b60006001600160a01b03808a16835260c06020840152610d5860c08401898b610d0b565b968116604084015260608301959095525091909216608082015260a001529392505050565b7f4e487b7100000000000000000000000000000000000000000000000000000000600052603260045260246000fd5b602081526000610dc0602083018486610d0b565b94935050505056fea26469706673582212201b4522fb0569845d8b5f10c97ff17ec9bb3b5a5ada3b5171d837ef1a88269d3b64736f6c63430008130033",
  "linkReferences": {},
  "deployedLinkReferences": {}
}